{
  "_format": "hh-sol-artifact-1",
  "contractName": "FundRaising",
  "sourceName": "contracts/FundRaising.sol",
  "abi": [
    {
      "inputs": [],
      "name": "AlreadyFinished",
      "type": "error"
    },
    {
      "inputs": [],
      "name": "InvalidCampaignData",
      "type": "error"
    },
    {
      "inputs": [],
      "name": "NotActive",
      "type": "error"
    },
    {
      "inputs": [],
      "name": "NotDonorYet",
      "type": "error"
    },
    {
      "inputs": [],
      "name": "NotEnoughTimePassed",
      "type": "error"
    },
    {
      "anonymous": false,
      "inputs": [
        {
          "indexed": false,
          "internalType": "uint256",
          "name": "id",
          "type": "uint256"
        },
        {
          "indexed": true,
          "internalType": "address",
          "name": "creator",
          "type": "address"
        },
        {
          "indexed": false,
          "internalType": "uint256",
          "name": "targetAmount",
          "type": "uint256"
        }
      ],
      "name": "CampaignFinished",
      "type": "event"
    },
    {
      "anonymous": false,
      "inputs": [
        {
          "indexed": false,
          "internalType": "uint256",
          "name": "id",
          "type": "uint256"
        },
        {
          "indexed": true,
          "internalType": "address",
          "name": "creator",
          "type": "address"
        },
        {
          "indexed": false,
          "internalType": "string",
          "name": "name",
          "type": "string"
        },
        {
          "indexed": false,
          "internalType": "uint256",
          "name": "targetAmount",
          "type": "uint256"
        }
      ],
      "name": "CampaignStart",
      "type": "event"
    },
    {
      "anonymous": false,
      "inputs": [
        {
          "indexed": false,
          "internalType": "uint256",
          "name": "id",
          "type": "uint256"
        },
        {
          "indexed": true,
          "internalType": "address",
          "name": "contributor",
          "type": "address"
        }
      ],
      "name": "DonationCanceled",
      "type": "event"
    },
    {
      "anonymous": false,
      "inputs": [
        {
          "indexed": false,
          "internalType": "uint256",
          "name": "id",
          "type": "uint256"
        },
        {
          "indexed": true,
          "internalType": "address",
          "name": "contributor",
          "type": "address"
        },
        {
          "indexed": false,
          "internalType": "uint256",
          "name": "amount",
          "type": "uint256"
        }
      ],
      "name": "DonationMade",
      "type": "event"
    },
    {
      "anonymous": false,
      "inputs": [
        {
          "indexed": false,
          "internalType": "uint256",
          "name": "id",
          "type": "uint256"
        },
        {
          "indexed": true,
          "internalType": "address",
          "name": "contributor",
          "type": "address"
        }
      ],
      "name": "RefundDonation",
      "type": "event"
    },
    {
      "inputs": [
        {
          "internalType": "uint256",
          "name": "",
          "type": "uint256"
        }
      ],
      "name": "campaigns",
      "outputs": [
        {
          "internalType": "address",
          "name": "creator",
          "type": "address"
        },
        {
          "internalType": "string",
          "name": "name",
          "type": "string"
        },
        {
          "internalType": "string",
          "name": "description",
          "type": "string"
        },
        {
          "internalType": "uint256",
          "name": "targetAmount",
          "type": "uint256"
        },
        {
          "internalType": "uint256",
          "name": "currentAmount",
          "type": "uint256"
        },
        {
          "internalType": "uint256",
          "name": "endTime",
          "type": "uint256"
        },
        {
          "internalType": "bool",
          "name": "active",
          "type": "bool"
        }
      ],
      "stateMutability": "view",
      "type": "function"
    },
    {
      "inputs": [
        {
          "internalType": "uint256",
          "name": "campaignIndex",
          "type": "uint256"
        }
      ],
      "name": "cancelDonation",
      "outputs": [],
      "stateMutability": "nonpayable",
      "type": "function"
    },
    {
      "inputs": [
        {
          "internalType": "uint256",
          "name": "campaignIndex",
          "type": "uint256"
        }
      ],
      "name": "donate",
      "outputs": [],
      "stateMutability": "payable",
      "type": "function"
    },
    {
      "inputs": [
        {
          "internalType": "uint256",
          "name": "",
          "type": "uint256"
        },
        {
          "internalType": "address",
          "name": "",
          "type": "address"
        }
      ],
      "name": "donations",
      "outputs": [
        {
          "internalType": "uint256",
          "name": "",
          "type": "uint256"
        }
      ],
      "stateMutability": "view",
      "type": "function"
    },
    {
      "inputs": [
        {
          "internalType": "uint256",
          "name": "campaignIndex",
          "type": "uint256"
        }
      ],
      "name": "finishCampaign",
      "outputs": [],
      "stateMutability": "nonpayable",
      "type": "function"
    },
    {
      "inputs": [
        {
          "internalType": "uint256",
          "name": "campaignIndex",
          "type": "uint256"
        }
      ],
      "name": "getCampaign",
      "outputs": [
        {
          "components": [
            {
              "internalType": "address",
              "name": "creator",
              "type": "address"
            },
            {
              "internalType": "string",
              "name": "name",
              "type": "string"
            },
            {
              "internalType": "string",
              "name": "description",
              "type": "string"
            },
            {
              "internalType": "uint256",
              "name": "targetAmount",
              "type": "uint256"
            },
            {
              "internalType": "uint256",
              "name": "currentAmount",
              "type": "uint256"
            },
            {
              "internalType": "uint256",
              "name": "endTime",
              "type": "uint256"
            },
            {
              "internalType": "bool",
              "name": "active",
              "type": "bool"
            }
          ],
          "internalType": "struct FundRaising.Campaign",
          "name": "",
          "type": "tuple"
        }
      ],
      "stateMutability": "view",
      "type": "function"
    },
    {
      "inputs": [
        {
          "internalType": "uint256",
          "name": "campaignIndex",
          "type": "uint256"
        }
      ],
      "name": "refundDonation",
      "outputs": [],
      "stateMutability": "nonpayable",
      "type": "function"
    },
    {
      "inputs": [
        {
          "internalType": "string",
          "name": "_name",
          "type": "string"
        },
        {
          "internalType": "string",
          "name": "_description",
          "type": "string"
        },
        {
          "internalType": "uint256",
          "name": "_targetAmount",
          "type": "uint256"
        },
        {
          "internalType": "uint256",
          "name": "_duration",
          "type": "uint256"
        }
      ],
      "name": "startCampaign",
      "outputs": [],
      "stateMutability": "nonpayable",
      "type": "function"
    }
  ],
  "bytecode": "0x608060405234801561001057600080fd5b506001600081905550612391806100286000396000f3fe60806040526004361061007b5760003560e01c8063736750dc1161004e578063736750dc14610152578063993c80001461017b578063ee1554a3146101a4578063f14faf6f146101e15761007b565b8063141961bc146100805780635545db0d146100c35780635598f8cc146100ec578063709cacc214610129575b600080fd5b34801561008c57600080fd5b506100a760048036038101906100a291906119e2565b6101fd565b6040516100ba9796959493929190611b13565b60405180910390f35b3480156100cf57600080fd5b506100ea60048036038101906100e591906119e2565b61037c565b005b3480156100f857600080fd5b50610113600480360381019061010e91906119e2565b6107cc565b6040516101209190611caa565b60405180910390f35b34801561013557600080fd5b50610150600480360381019061014b91906119e2565b6109ca565b005b34801561015e57600080fd5b5061017960048036038101906101749190611d31565b610f7f565b005b34801561018757600080fd5b506101a2600480360381019061019d91906119e2565b611201565b005b3480156101b057600080fd5b506101cb60048036038101906101c69190611e04565b6115a5565b6040516101d89190611e44565b60405180910390f35b6101fb60048036038101906101f691906119e2565b6115ca565b005b60026020528060005260406000206000915090508060000160009054906101000a900473ffffffffffffffffffffffffffffffffffffffff169080600101805461024690611e8e565b80601f016020809104026020016040519081016040528092919081815260200182805461027290611e8e565b80156102bf5780601f10610294576101008083540402835291602001916102bf565b820191906000526020600020905b8154815290600101906020018083116102a257829003601f168201915b5050505050908060020180546102d490611e8e565b80601f016020809104026020016040519081016040528092919081815260200182805461030090611e8e565b801561034d5780601f106103225761010080835404028352916020019161034d565b820191906000526020600020905b81548152906001019060200180831161033057829003601f168201915b5050505050908060030154908060040154908060050154908060060160009054906101000a900460ff16905087565b806000811015801561039057506001548111155b61039957600080fd5b600260005414156103df576040517f08c379a00000000000000000000000000000000000000000000000000000000081526004016103d690611f0c565b60405180910390fd5b60026000819055506000600260008481526020019081526020016000206040518060e00160405290816000820160009054906101000a900473ffffffffffffffffffffffffffffffffffffffff1673ffffffffffffffffffffffffffffffffffffffff1673ffffffffffffffffffffffffffffffffffffffff16815260200160018201805461046d90611e8e565b80601f016020809104026020016040519081016040528092919081815260200182805461049990611e8e565b80156104e65780601f106104bb576101008083540402835291602001916104e6565b820191906000526020600020905b8154815290600101906020018083116104c957829003601f168201915b505050505081526020016002820180546104ff90611e8e565b80601f016020809104026020016040519081016040528092919081815260200182805461052b90611e8e565b80156105785780601f1061054d57610100808354040283529160200191610578565b820191906000526020600020905b81548152906001019060200180831161055b57829003601f168201915b505050505081526020016003820154815260200160048201548152602001600582015481526020016006820160009054906101000a900460ff1615151515815250509050428160a0015111156105fa576040517f5ada9a9900000000000000000000000000000000000000000000000000000000815260040160405180910390fd5b8060c00151610635576040517f80cb55e200000000000000000000000000000000000000000000000000000000815260040160405180910390fd5b806080015181606001511461067f576040517f08c379a000000000000000000000000000000000000000000000000000000000815260040161067690611f78565b60405180910390fd5b3373ffffffffffffffffffffffffffffffffffffffff16816000015173ffffffffffffffffffffffffffffffffffffffff16146106f1576040517f08c379a00000000000000000000000000000000000000000000000000000000081526004016106e890611fe4565b60405180910390fd5b60006002600085815260200190815260200160002060060160006101000a81548160ff0219169083151502179055503373ffffffffffffffffffffffffffffffffffffffff166108fc82606001519081150290604051600060405180830381858888f1935050505015801561076a573d6000803e3d6000fd5b503373ffffffffffffffffffffffffffffffffffffffff167f5c64c260e0d63b0e4aedb257100188cce41f3b79b9806875e3af4c9b946a77328483606001516040516107b7929190612004565b60405180910390a25060016000819055505050565b6107d46118aa565b81600081101580156107e857506001548111155b6107f157600080fd5b600260008481526020019081526020016000206040518060e00160405290816000820160009054906101000a900473ffffffffffffffffffffffffffffffffffffffff1673ffffffffffffffffffffffffffffffffffffffff1673ffffffffffffffffffffffffffffffffffffffff16815260200160018201805461087590611e8e565b80601f01602080910402602001604051908101604052809291908181526020018280546108a190611e8e565b80156108ee5780601f106108c3576101008083540402835291602001916108ee565b820191906000526020600020905b8154815290600101906020018083116108d157829003601f168201915b5050505050815260200160028201805461090790611e8e565b80601f016020809104026020016040519081016040528092919081815260200182805461093390611e8e565b80156109805780601f1061095557610100808354040283529160200191610980565b820191906000526020600020905b81548152906001019060200180831161096357829003601f168201915b505050505081526020016003820154815260200160048201548152602001600582015481526020016006820160009054906101000a900460ff161515151581525050915050919050565b80600081101580156109de57506001548111155b6109e757600080fd5b813373ffffffffffffffffffffffffffffffffffffffff166002600083815260200190815260200160002060000160009054906101000a900473ffffffffffffffffffffffffffffffffffffffff1673ffffffffffffffffffffffffffffffffffffffff161415610a8d576040517f08c379a0000000000000000000000000000000000000000000000000000000008152600401610a8490611fe4565b60405180910390fd5b60026000541415610ad3576040517f08c379a0000000000000000000000000000000000000000000000000000000008152600401610aca90611f0c565b60405180910390fd5b60026000819055506000600260008581526020019081526020016000206040518060e00160405290816000820160009054906101000a900473ffffffffffffffffffffffffffffffffffffffff1673ffffffffffffffffffffffffffffffffffffffff1673ffffffffffffffffffffffffffffffffffffffff168152602001600182018054610b6190611e8e565b80601f0160208091040260200160405190810160405280929190818152602001828054610b8d90611e8e565b8015610bda5780601f10610baf57610100808354040283529160200191610bda565b820191906000526020600020905b815481529060010190602001808311610bbd57829003601f168201915b50505050508152602001600282018054610bf390611e8e565b80601f0160208091040260200160405190810160405280929190818152602001828054610c1f90611e8e565b8015610c6c5780601f10610c4157610100808354040283529160200191610c6c565b820191906000526020600020905b815481529060010190602001808311610c4f57829003601f168201915b505050505081526020016003820154815260200160048201548152602001600582015481526020016006820160009054906101000a900460ff1615151515815250509050428160a001511115610cee576040517f5ada9a9900000000000000000000000000000000000000000000000000000000815260040160405180910390fd5b60006003600086815260200190815260200160002060003373ffffffffffffffffffffffffffffffffffffffff1673ffffffffffffffffffffffffffffffffffffffff1681526020019081526020016000205411610d78576040517fd5a8ed6b00000000000000000000000000000000000000000000000000000000815260040160405180910390fd5b600015158160c00151151514610dc3576040517f08c379a0000000000000000000000000000000000000000000000000000000008152600401610dba90612079565b60405180910390fd5b806000015173ffffffffffffffffffffffffffffffffffffffff163373ffffffffffffffffffffffffffffffffffffffff161415610e36576040517f08c379a0000000000000000000000000000000000000000000000000000000008152600401610e2d906120e5565b60405180910390fd5b60006003600086815260200190815260200160002060003373ffffffffffffffffffffffffffffffffffffffff1673ffffffffffffffffffffffffffffffffffffffff168152602001908152602001600020819055503373ffffffffffffffffffffffffffffffffffffffff166108fc6003600087815260200190815260200160002060003373ffffffffffffffffffffffffffffffffffffffff1673ffffffffffffffffffffffffffffffffffffffff168152602001908152602001600020549081150290604051600060405180830381858888f19350505050158015610f22573d6000803e3d6000fd5b503373ffffffffffffffffffffffffffffffffffffffff167fd791525f7f135132ed9b9d8a02efaf0c9ba6a168b5f678f5a674435b1b3f5c0a85604051610f699190611e44565b60405180910390a2506001600081905550505050565b600086869050111580610f925750600082115b80610f9d5750600081115b15610fd4576040517fc5fc167300000000000000000000000000000000000000000000000000000000815260040160405180910390fd5b6040518060e001604052803373ffffffffffffffffffffffffffffffffffffffff16815260200187878080601f016020809104026020016040519081016040528093929190818152602001838380828437600081840152601f19601f82011690508083019250505050505050815260200185858080601f016020809104026020016040519081016040528093929190818152602001838380828437600081840152601f19601f8201169050808301925050505050505081526020018381526020016000815260200182426110a89190612134565b81526020016001151581525060026000600154815260200190815260200160002060008201518160000160006101000a81548173ffffffffffffffffffffffffffffffffffffffff021916908373ffffffffffffffffffffffffffffffffffffffff160217905550602082015181600101908051906020019061112c9291906118ff565b5060408201518160020190805190602001906111499291906118ff565b50606082015181600301556080820151816004015560a0820151816005015560c08201518160060160006101000a81548160ff0219169083151502179055509050506001600081548092919061119e9061218a565b91905055503373ffffffffffffffffffffffffffffffffffffffff167f2fb458f3b0aa9e70ea33990550aaa38dd9a0f1ec529792529e84bc98a40c3e3b6001548888866040516111f1949392919061220f565b60405180910390a2505050505050565b806000811015801561121557506001548111155b61121e57600080fd5b813373ffffffffffffffffffffffffffffffffffffffff166002600083815260200190815260200160002060000160009054906101000a900473ffffffffffffffffffffffffffffffffffffffff1673ffffffffffffffffffffffffffffffffffffffff1614156112c4576040517f08c379a00000000000000000000000000000000000000000000000000000000081526004016112bb90611fe4565b60405180910390fd5b6002600054141561130a576040517f08c379a000000000000000000000000000000000000000000000000000000000815260040161130190611f0c565b60405180910390fd5b6002600081905550600060026000858152602001908152602001600020905060006003600086815260200190815260200160002060003373ffffffffffffffffffffffffffffffffffffffff1673ffffffffffffffffffffffffffffffffffffffff16815260200190815260200160002054116113b3576040517fd5a8ed6b00000000000000000000000000000000000000000000000000000000815260040160405180910390fd5b42816005015410156113f1576040517f36a683ad00000000000000000000000000000000000000000000000000000000815260040160405180910390fd5b6003600085815260200190815260200160002060003373ffffffffffffffffffffffffffffffffffffffff1673ffffffffffffffffffffffffffffffffffffffff16815260200190815260200160002054816004016000828254611455919061224f565b9250508190555060006003600086815260200190815260200160002060003373ffffffffffffffffffffffffffffffffffffffff1673ffffffffffffffffffffffffffffffffffffffff168152602001908152602001600020819055503373ffffffffffffffffffffffffffffffffffffffff166108fc6003600087815260200190815260200160002060003373ffffffffffffffffffffffffffffffffffffffff1673ffffffffffffffffffffffffffffffffffffffff168152602001908152602001600020549081150290604051600060405180830381858888f19350505050158015611548573d6000803e3d6000fd5b503373ffffffffffffffffffffffffffffffffffffffff167f07fb04d68353777bbb893cd43b605e5c9fe3fb83ac0af29007de2f9ec9bb74a68560405161158f9190611e44565b60405180910390a2506001600081905550505050565b6003602052816000526040600020602052806000526040600020600091509150505481565b80600081101580156115de57506001548111155b6115e757600080fd5b813373ffffffffffffffffffffffffffffffffffffffff166002600083815260200190815260200160002060000160009054906101000a900473ffffffffffffffffffffffffffffffffffffffff1673ffffffffffffffffffffffffffffffffffffffff16141561168d576040517f08c379a000000000000000000000000000000000000000000000000000000000815260040161168490611fe4565b60405180910390fd5b600060026000858152602001908152602001600020905042816005015410156116e2576040517f36a683ad00000000000000000000000000000000000000000000000000000000815260040160405180910390fd5b8060060160009054906101000a900460ff1661172a576040517f80cb55e200000000000000000000000000000000000000000000000000000000815260040160405180910390fd5b60003411801561174d575080600401548160030154611749919061224f565b3411155b61178c576040517f08c379a0000000000000000000000000000000000000000000000000000000008152600401611783906122cf565b60405180910390fd5b428160050154116117d2576040517f08c379a00000000000000000000000000000000000000000000000000000000081526004016117c99061233b565b60405180910390fd5b346003600086815260200190815260200160002060003373ffffffffffffffffffffffffffffffffffffffff1673ffffffffffffffffffffffffffffffffffffffff16815260200190815260200160002060008282546118329190612134565b925050819055503481600401600082825461184d9190612134565b925050819055503373ffffffffffffffffffffffffffffffffffffffff167fe555da28bdb778f65d22794d88927ebaeca03f7de9d1b7d39245bc8fb5ca078a853460405161189c929190612004565b60405180910390a250505050565b6040518060e00160405280600073ffffffffffffffffffffffffffffffffffffffff16815260200160608152602001606081526020016000815260200160008152602001600081526020016000151581525090565b82805461190b90611e8e565b90600052602060002090601f01602090048101928261192d5760008555611974565b82601f1061194657805160ff1916838001178555611974565b82800160010185558215611974579182015b82811115611973578251825591602001919060010190611958565b5b5090506119819190611985565b5090565b5b8082111561199e576000816000905550600101611986565b5090565b600080fd5b600080fd5b6000819050919050565b6119bf816119ac565b81146119ca57600080fd5b50565b6000813590506119dc816119b6565b92915050565b6000602082840312156119f8576119f76119a2565b5b6000611a06848285016119cd565b91505092915050565b600073ffffffffffffffffffffffffffffffffffffffff82169050919050565b6000611a3a82611a0f565b9050919050565b611a4a81611a2f565b82525050565b600081519050919050565b600082825260208201905092915050565b60005b83811015611a8a578082015181840152602081019050611a6f565b83811115611a99576000848401525b50505050565b6000601f19601f8301169050919050565b6000611abb82611a50565b611ac58185611a5b565b9350611ad5818560208601611a6c565b611ade81611a9f565b840191505092915050565b611af2816119ac565b82525050565b60008115159050919050565b611b0d81611af8565b82525050565b600060e082019050611b28600083018a611a41565b8181036020830152611b3a8189611ab0565b90508181036040830152611b4e8188611ab0565b9050611b5d6060830187611ae9565b611b6a6080830186611ae9565b611b7760a0830185611ae9565b611b8460c0830184611b04565b98975050505050505050565b611b9981611a2f565b82525050565b600082825260208201905092915050565b6000611bbb82611a50565b611bc58185611b9f565b9350611bd5818560208601611a6c565b611bde81611a9f565b840191505092915050565b611bf2816119ac565b82525050565b611c0181611af8565b82525050565b600060e083016000830151611c1f6000860182611b90565b5060208301518482036020860152611c378282611bb0565b91505060408301518482036040860152611c518282611bb0565b9150506060830151611c666060860182611be9565b506080830151611c796080860182611be9565b5060a0830151611c8c60a0860182611be9565b5060c0830151611c9f60c0860182611bf8565b508091505092915050565b60006020820190508181036000830152611cc48184611c07565b905092915050565b600080fd5b600080fd5b600080fd5b60008083601f840112611cf157611cf0611ccc565b5b8235905067ffffffffffffffff811115611d0e57611d0d611cd1565b5b602083019150836001820283011115611d2a57611d29611cd6565b5b9250929050565b60008060008060008060808789031215611d4e57611d4d6119a2565b5b600087013567ffffffffffffffff811115611d6c57611d6b6119a7565b5b611d7889828a01611cdb565b9650965050602087013567ffffffffffffffff811115611d9b57611d9a6119a7565b5b611da789828a01611cdb565b94509450506040611dba89828a016119cd565b9250506060611dcb89828a016119cd565b9150509295509295509295565b611de181611a2f565b8114611dec57600080fd5b50565b600081359050611dfe81611dd8565b92915050565b60008060408385031215611e1b57611e1a6119a2565b5b6000611e29858286016119cd565b9250506020611e3a85828601611def565b9150509250929050565b6000602082019050611e596000830184611ae9565b92915050565b7f4e487b7100000000000000000000000000000000000000000000000000000000600052602260045260246000fd5b60006002820490506001821680611ea657607f821691505b60208210811415611eba57611eb9611e5f565b5b50919050565b7f5265656e7472616e637947756172643a207265656e7472616e742063616c6c00600082015250565b6000611ef6601f83611a5b565b9150611f0182611ec0565b602082019050919050565b60006020820190508181036000830152611f2581611ee9565b9050919050565b7f4e6f7420656e6f7567682066756e647300000000000000000000000000000000600082015250565b6000611f62601083611a5b565b9150611f6d82611f2c565b602082019050919050565b60006020820190508181036000830152611f9181611f55565b9050919050565b7f4e6f742063726561746f72000000000000000000000000000000000000000000600082015250565b6000611fce600b83611a5b565b9150611fd982611f98565b602082019050919050565b60006020820190508181036000830152611ffd81611fc1565b9050919050565b60006040820190506120196000830185611ae9565b6120266020830184611ae9565b9392505050565b7f4e6f742066696e69736865640000000000000000000000000000000000000000600082015250565b6000612063600c83611a5b565b915061206e8261202d565b602082019050919050565b6000602082019050818103600083015261209281612056565b9050919050565b7f43726561746f722063616e277420726566756e64000000000000000000000000600082015250565b60006120cf601483611a5b565b91506120da82612099565b602082019050919050565b600060208201905081810360008301526120fe816120c2565b9050919050565b7f4e487b7100000000000000000000000000000000000000000000000000000000600052601160045260246000fd5b600061213f826119ac565b915061214a836119ac565b9250827fffffffffffffffffffffffffffffffffffffffffffffffffffffffffffffffff0382111561217f5761217e612105565b5b828201905092915050565b6000612195826119ac565b91507fffffffffffffffffffffffffffffffffffffffffffffffffffffffffffffffff8214156121c8576121c7612105565b5b600182019050919050565b82818337600083830152505050565b60006121ee8385611a5b565b93506121fb8385846121d3565b61220483611a9f565b840190509392505050565b60006060820190506122246000830187611ae9565b81810360208301526122378185876121e2565b90506122466040830184611ae9565b95945050505050565b600061225a826119ac565b9150612265836119ac565b92508282101561227857612277612105565b5b828203905092915050565b7f496e76616c696420616d6f756e7420746f20646f6e6174650000000000000000600082015250565b60006122b9601883611a5b565b91506122c482612283565b602082019050919050565b600060208201905081810360008301526122e8816122ac565b9050919050565b7f43616d706169676e2066696e6973686564000000000000000000000000000000600082015250565b6000612325601183611a5b565b9150612330826122ef565b602082019050919050565b6000602082019050818103600083015261235481612318565b905091905056fea264697066735822122081cb6300deeffaa18dcdc09acd26bc5d623d019c728c0d64c1ec22499ddcddd064736f6c63430008090033",
  "linkReferences": {},
  "deployedLinkReferences": {}
}